:100000000C94C7000C94EF000C94EF000C94EF00DC
:100010000C94EF000C94EF000C94EF000C94EF00A4
:100020000C94EF000C94EF000C94EF000C94EF0094
:100030000C94EF000C94EF000C94EF000C94EF0084
:100040000C949F070C94EF000C946D070C944707D9
:100050000C94EF000C94EF000C94EF000C94EF0064
:100060000C94EF000C94EF0008000000BE922449AD
:10007000123EABAAAA2ABECDCCCC4C3E00000080DA
:10008000BEABAAAAAA3E00000000BF000000803F4D
:100090000000000000084178D3BB4387D1133D190D
:1000A0000E3CC3BD4282AD2B3E68EC8276BED98F3A
:1000B000E1A93E4C80EFFFBE01C4FF7F3F0000007E
:1000C000000007634236B79BD8A71A39685618AEA6
:1000D000BAAB558C1D3CB7CC5763BD6DEDFD753E7D
:1000E000F6177231BF000000803FCDCCCC3D0AD75F
:1000F000233C17B7D13877CC2B329595E6241FB126
:100100004F0A0000803FCDCCCC3D6F12833A95BFA3
:10011000D6337D1D9026B3CE010C00002041000097
:10012000C84200401C4620BCBE4CCA1B0E5AAEC57D
:100130009D7400000000250028002B000000000036
:10014000240027002A0000000000230026002900C8
:10015000040404040404040402020202020203036D
:100160000303030301020408102040800102040875
:100170001020010204081020000000080002010005
:10018000000304070000000000000000990911248A
:100190001FBECFEFD8E0DEBFCDBF22E0A2EBB1E0C3
:1001A00001C01D92A436B207E1F711E0A0E0B1E072
:1001B000E2E9FBE102C005900D92A23BB107D9F73D
:1001C00010E0C7ECD0E004C02197FE010E94B80DFA
:1001D000C63CD107C9F70E94E9070C94C70D0C94DF
:1001E0000000AF92BF92CF92DF92EF92FF920F93F7
:1001F0001F93CF93DF936C017B018B01040F151FBD
:10020000EB015E01AE18BF08C017D10759F0699124
:10021000D601ED91FC910190F081E02DC601099588
:10022000892B79F7C501DF91CF911F910F91FF9035
:10023000EF90DF90CF90BF90AF900895FC01538D69
:10024000448D252F30E0842F90E0821B930B5417B0
:1002500010F0CF96089501970895FC01918D828D3D
:10026000981761F0A28DAE0FBF2FB11D5D968C91D6
:10027000928D9F5F9F73928F90E008958FEF9FEF15
:100280000895FC01918D828D981731F0828DE80FD1
:10029000F11D858D90E008958FEF9FEF0895FC018B
:1002A000918D228D892F90E0805C9F4F821B910958
:1002B0008F73992708958BEB91E00E944F0121E005
:1002C000892B09F420E0822F089580E090E0892BAB
:1002D00029F00E945B0181110C9400000895FC013B
:1002E000A48DA80FB92FB11DA35ABF4F2C91848D97
:1002F00090E001968F739927848FA689B7892C93F4
:10030000A089B1898C91837080648C93938D848D46
:10031000981306C00288F389E02D80818F7D808349
:100320000895EF92FF920F931F93CF93DF93EC0109
:1003300081E0888F9B8D8C8D98131AC0E889F9898C
:10034000808185FF15C09FB7F894EE89FF8960838F
:10035000E889F98980818370806480839FBF81E010
:1003600090E0DF91CF911F910F91FF90EF90089552
:10037000F62E0B8D10E00F5F1F4F0F731127E02E2D
:100380008C8D8E110CC00FB607FCFACFE889F98965
:10039000808185FFF5CFCE010E946F01F1CFEB8DFB
:1003A000EC0FFD2FF11DE35AFF4FF0829FB7F89439
:1003B0000B8FEA89FB8980818062CFCFCF93DF9357
:1003C000EC01888D8823B9F0AA89BB89E889F9896D
:1003D0008C9185FD03C0808186FD0DC00FB607FCA2
:1003E000F7CF8C9185FFF2CF808185FFEDCFCE01D5
:1003F0000E946F01E9CFDF91CF910895CF93DF93F2
:1004000090E0FC01EC59FE4F2491805B9E4FFC0173
:1004100084918823C9F090E0880F991FFC01E45C67
:10042000FE4FA591B491FC01EE5CFE4FC591D491B5
:1004300061110DC09FB7F8948C91209582238C9305
:100440008881282328839FBFDF91CF910895623050
:1004500051F49FB7F8943C91822F809583238C931D
:10046000E8812E2BEFCF8FB7F894EC912E2B2C93A5
:100470008FBFEACF8E3008F08E50877080648093F3
:100480007C0080917A00806480937A0080917A0069
:1004900086FDFCCF809178009091790008953FB758
:1004A000F8948091B7019091B801A091B901B091F1
:1004B000BA0126B5A89B05C02F3F19F00196A11DD2
:1004C000B11D3FBFBA2FA92F982F8827BC01CD019E
:1004D000620F711D811D911D42E0660F771F881FFD
:1004E000991F4A95D1F708958F929F92AF92BF922C
:1004F000CF92DF92EF92FF920E944F024B015C017C
:100500008AE0C82ED12CE12CF12C0E944F026819F0
:1005100079098A099B09683E734081059105A8F312
:1005200021E0C21AD108E108F10888EE880E83E0C4
:10053000981EA11CB11CC114D104E104F10429F7D7
:10054000FF90EF90DF90CF90BF90AF909F908F90F3
:1005500008959C01FB01309741F09481907894605C
:1005600094833183208381E0089580E00895CF93C0
:10057000DF93EC0188819981DC01ED91FC91019080
:10058000F081E02D09952A813B81820F931F9B8387
:100590008A83DF91CF910895CF93DF93EC01888117
:1005A0009981DC01ED91FC910280F381E02D0995A8
:1005B0002A813B81820F931F9B838A83DF91CF9196
:1005C00008958F929F92AF92BF92CF92DF92EF9257
:1005D000FF920F931F93CF93DF93CDB7DEB766974C
:1005E0000FB6F894DEBF0FBECDBF6C018E01095E61
:1005F0001F4F78018AE0882E912CA12CB12CCB01C1
:10060000BA01A50194010E94960D942F852F605D7B
:10061000F80162938F01A901692F782F41155105C7
:100620006105710561F7A7014E1B5F0BBF01C60194
:100630000E94CC0266960FB6F894DEBF0FBECDBF07
:10064000DF91CF911F910F91FF90EF90DF90CF90AE
:10065000BF90AF909F908F900895EF92FF920F936D
:100660001F93CF93DF93EC017B0162E20E94B702FC
:100670008701F80161918F01662391F0E2E1F1E0D9
:10068000F280FF2049F0329681816813F9CF6CE542
:10069000CE010E94B7026F2DCE010E94B702E9CFB2
:1006A00062E2CE01DF91CF911F910F91FF90EF9009
:1006B0000C94B702FC012581222339F0F8E02F02C7
:1006C00090011124820F931F089590E080E0089517
:1006D000FB0101900020E9F73197AF01461B570B52
:1006E0000C94CC022F923F924F925F926F927F9226
:1006F0008F929F92AF92BF92CF92DF92EF92FF9232
:100700000F931F93CF93DF93CDB7DEB76C970FB6E0
:10071000F894DEBF0FBECDBF8C011B01DC01149627
:100720008C9114978F77863009F474C278F48230F4
:10073000B0F0843008F04CC212964D915C91139742
:100740006D917C91C1010E94CC0226C28C3069F16E
:1007500060F4883009F459C28A3009F43FC263E278
:1007600071E0C1010E946803E5C1803209F4ECC167
:100770008034A9F76BE5C1010E94B702F80100813E
:1007800011810115110509F4DAC1B101C8010E94F6
:100790007203C8010E945A038C01892B09F4CFC14E
:1007A0006CE2C1010E94B702ECCFF801C080D18099
:1007B000E280F380A7019601C701B6010E94C60935
:1007C0008111CDCF20E030E0A901C701B6010E9420
:1007D000C609882379F0A7019601C701B6010E94D6
:1007E000EB0A9B01AC01C701B6010E94C609882330
:1007F00009F4B5CF20E030E0A901C701B6010E949D
:10080000C60987FF08C06DE2C1010E94B702F7FA6E
:10081000F094F7F8F09420E836E948E15BE4C7018A
:10082000B6010E94F80B87FD81C074E1A72EB12CA0
:1008300000E210E0188E1F8AF501E65EFE4F25915A
:10084000359145915491C701B6010E94F80B87FD7F
:1008500013C0F501E651FF4F259135914591549113
:10086000C701B6010E942C0A6B017C012F89388DCB
:10087000200F311F388F2F8B1595079534E0A31A61
:10088000B1088CEFA8168FEFB806B1F655245A942C
:1008900020E030E0A901C701B6010E94F80B18164C
:1008A0000CF04BC02CEA35EC47E257E3C701B60128
:1008B0000E94C60918160CF440C0A52DB4E0AB0286
:1008C000C0011124912C812CFC01EE5FFE4F3F01F1
:1008D0009C01265E3E4F59013FEF531671F1F30123
:1008E000E80DF91D6591759185919491A701960187
:1008F0000E94F80B18169CF4F501E80DF91D2591DE
:10090000359145915491C701B6010E942C0A6B01A3
:100910007C018F89988D801B910B988F8F8B1595FB
:1009200007955A9494E0891A9108D6CF00E210E016
:1009300055E0552E188E1F8AABCFC701B6010E9415
:10094000C90B4B015C012B013C0106E080E492E401
:10095000AFE0B0E0898F9A8FAB8FBC8F102F015022
:100960009AE04916510461047104C8F0698D7A8DCA
:100970008B8D9C8D2AE030E040E050E00E94960D87
:10098000298F3A8F4B8F5C8FC301B2012AE030E090
:1009900040E050E00E94960D29013A01DFCFC501E9
:1009A000B4010E94CB099B01AC01C701B6010E94B2
:1009B000EA0A6B017C01698D7A8D8B8D9C8D0E947A
:1009C000CB099B01AC01C701B6010E942C0A2B0187
:1009D0003C010E94C90B6B017C010E94CB099B0169
:1009E000AC01C301B2010E94EA0A9B01AC010E9462
:1009F000EB0A0E94C90BC60ED71EE81EF91E898D90
:100A00009A8DAB8DBC8DC816D906EA06FB06D8F0C8
:100A10009FEF891A990AA90AB90AAF89B88DAB2B39
:100A200039F1BAE08B169104A104B10408F1EF8901
:100A3000F88D3196F88FEF8BC12CD12C7601812C5B
:100A4000912C540183942AE0422E512C612C712C5C
:100A5000C701B601A30192010E94960D672B682B76
:100A6000692B51F4111644F469017A011150F0CF49
:100A7000C12CD12C7601E7CFB501A401C1010E94A0
:100A8000E102112371F14E01F1E18F0E911C012F52
:100A900054019AE0492E512C612C712C015068F0C0
:100AA000C701B601A30192010E94960D605DD401B9
:100AB0006E934D0169017A01F1CF812F90E0BC0165
:100AC00060957095F501E81BF90B31978EE28083F4
:100AD00044275527461B570B6A0D7B1DC1010E94F9
:100AE000CC02EF89F88DEF2B29F165E6C1010E9458
:100AF000B7020F89188D17FF07C06DE2C1010E9470
:100B0000B702119501951109FE0177969F018AE0C0
:100B1000E82EF12CC801B7010E94820D805D8293FE
:100B20008B01672BB9F7A9014E1B5F0BBF01C101F8
:100B30000E94CC02D10112968D919C9130C06DE53E
:100B4000C1010E94B702F6CF6BE7C1010E94B70254
:100B5000F8010081118101151105D1F0D801169617
:100B60006D917C91C1010E942D036AE3C1010E9435
:100B7000B702B101C8010E947203C8010E945A0362
:100B80008C01892B29F06CE2C1010E94B702E3CFEE
:100B90006DE7C1010E94B702F101828193816C96D9
:100BA0000FB6F894DEBF0FBECDBFDF91CF911F917E
:100BB0000F91FF90EF90DF90CF90BF90AF909F90FC
:100BC0008F907F906F905F904F903F902F900895FF
:100BD0006D917C91C1010E942D03DECFCD90DD90FF
:100BE000ED90FC90B701A601F7FE0BC06DE2C101CC
:100BF0000E94B70244275527BA014C195D096E09B6
:100C00007F09C1010E94E102C7CF4D915D916D91B5
:100C10007C91F7CF8C9168E271E0811102C06DE2A6
:100C200071E0C1010E946803B7CFCF92DF92EF92CB
:100C3000FF920F931F93CF93DF93FC018481982F32
:100C40009F7739F4807880628483118210821382C6
:100C50001282848185FD0CC0D0E0C0E0CE01DF911E
:100C6000CF911F910F91FF90EF90DF90CF9008955B
:100C70006115710589F37A016B018F01C081D18102
:100C80002097C1F16E817F816C157D0539F3611567
:100C9000710529F0C6010E94BE0D892BF9F2CE0123
:100CA0000E945A03EC01ECCFE9012897F701D583A4
:100CB000C483209789F2D8011296ED91FC91139785
:100CC000309791F0CE018E1B9F0B23E09595879571
:100CD0002A95E1F785831396DC93CE9312971D82B4
:100CE0001C82DF82CE82BACFF801D183C083D38346
:100CF000C283F5CFD70114962D913C91159712968A
:100D00008D919C9108962817390770F681E0D701DC
:100D100018968C93A3CF0F931F93CF93DF93CDB7E8
:100D2000DEB7CC56D2400FB6F894DEBF0FBECDBFB3
:100D3000CE010F969A8389839C838B838E010959F8
:100D40001D4F1E830D8318870F8319868E8580782B
:100D50008E87AE014F5F5F4F63E371E0CE010A966D
:100D60000E941506BC018DE391E00E94A902AE012C
:100D70004F5F5F4F6AE471E0CE010A960E9415064C
:100D8000FC01892B81F040915C0250915D026091E1
:100D90005E0270915F02948190789C60948340839E
:100DA000518362837383AE014F5F5F4F69E571E0EA
:100DB000CE010A960E941506BC0184E691E00E94CD
:100DC000A902AE014F5F5F4F60E771E0CE010A9666
:100DD0000E941506FC01892B81F040916002509120
:100DE00061026091620270916302948190789C60CC
:100DF00094834083518362837383AE014F5F5F4F5F
:100E000060E871E0CE010A960E941506BC018BE8ED
:100E100091E00E94A902AE014F5F5F4F6FE971E060
:100E2000CE010A960E941506FC01892B81F04091A3
:100E300058025091590260915A0270915B0294815C
:100E400090789C60948340835183628373838BEB9F
:100E500091E0F8019183808313821282B801CE0160
:100E60000A960E94720342E050E06FEA71E08BEB59
:100E700091E00E94F100C459DD4F0FB6F894DEBF37
:100E80000FBECDBFDF91CF911F910F9108951F929B
:100E90000F920FB60F9211242F933F934F935F93AE
:100EA0006F937F938F939F93AF93BF93EF93FF9332
:100EB0008BEB91E00E946F01FF91EF91BF91AF9199
:100EC0009F918F917F916F915F914F913F912F9162
:100ED0000F900FBE0F901F9018951F920F920FB694
:100EE0000F9211242F938F939F93EF93FF93E09191
:100EF000CB01F091CC018081E091D101F091D20140
:100F000082FD1BC090818091D4018F5F8F732091EF
:100F1000D501821741F0E091D401F0E0E554FE4F95
:100F2000958F8093D401FF91EF919F918F912F9195
:100F30000F900FBE0F901F9018958081F4CF1F92D5
:100F40000F920FB60F9211242F933F938F939F937D
:100F5000AF93BF938091B3019091B401A091B5017B
:100F6000B091B6013091B20123E0230F2D3758F52F
:100F70000196A11DB11D2093B2018093B3019093FE
:100F8000B401A093B501B093B6018091B7019091DF
:100F9000B801A091B901B091BA010196A11DB11D8E
:100FA0008093B7019093B801A093B901B093BA01AF
:100FB000BF91AF919F918F913F912F910F900FBE55
:100FC0000F901F90189526E8230F0296A11DB11DC2
:100FD000D2CF789484B5826084BD84B5816084BDAD
:100FE00085B5826085BD85B5816085BD80916E00C7
:100FF000816080936E0010928100809181008260F8
:101000008093810080918100816080938100809134
:1010100080008160809380008091B1008460809323
:10102000B1008091B00081608093B00080917A001F
:10103000846080937A0080917A00826080937A0045
:1010400080917A00816080937A0080917A00806834
:1010500080937A001092C100E091CB01F091CC0115
:1010600082E08083E091C701F091C8011082E09195
:10107000C901F091CA0180E180831092D301E0910F
:10108000CF01F091D00186E08083E091CD01F09115
:10109000CE01808180618083E091CD01F091CE010D
:1010A000808188608083E091CD01F091CE018081C4
:1010B00080688083E091CD01F091CE0180818F7DA9
:1010C000808362E084E00E94FE0160E080E10E9493
:1010D000FE0160E08EE00E94FE018AE090E0A0E068
:1010E000B0E08093BF019093C001A093C101B09381
:1010F000C20160E082E00E94FE010AE711E026E6FC
:10110000E22E21E0F22E32E5C32E31E0D32E40E074
:10111000A42E40E0B42E9AE0692E712CD0E0C0E0FD
:101120008EE00E943A02C80FD91F0E94740281E02B
:10113000681A7108A9F7BE01DD0F880B990B0E9490
:10114000CD0920E030E040EA50E40E942C0A20E083
:1011500030E040E256E40E94570B9B01AC0160E096
:1011600070E583E497E40E94570B20E030E44CE103
:1011700056E40E94EA0A24E731E348E65DE30E9470
:10118000570B0E94050C9B01AC0160E070E081E60A
:1011900095E40E94570B20E030E848E853E40E94B1
:1011A000EA0A6093600270936102809362029093F6
:1011B000630280E10E943A02BC01990F880B990BEF
:1011C0000E94CD099B01AC0160E070EC8FE794E4D4
:1011D0000E94570B20E030E040E85FE30E94EA0AFB
:1011E0009B01AC0160E070E48CE196E40E94570B37
:1011F0009B01AC0160E079ED88EF97E40E94570B0A
:1012000025E23FE245E95FE30E944D0C60935C02FA
:1012100070935D0280935E0290935F02C2E0D0E023
:10122000412C512C3201F8018491F7019491F6017F
:10123000249170E060E02223E9F0882359F08330A4
:1012400009F460C008F053C0813009F461C08230F5
:1012500009F462C0E22FF0E0EE0FFF1FEA5BFE4FE1
:10126000A591B4918C91982321E080E009F420E0CD
:10127000622F782F072E000C880B990B0E94CD0946
:101280009B01AC01C301B2010E94EB0A2B013C019E
:101290000E947402219741F523EC35EF48EC50E4AD
:1012A000C301B2010E942C0A9B01AC010E94EB0A0F
:1012B00026E636E646E650E40E942C0A6093580281
:1012C0007093590280935A0290935B020E948B069E
:1012D000A114B10409F41FCF0E945B01882309F413
:1012E0001ACF0E94000017CFC1E0D0E09CCF87301A
:1012F000B1F08830D1F0843009F0ACCF809180001B
:101300008F7D03C0809180008F7780938000A2CF73
:1013100084B58F7784BD9ECF84B58F7DFBCF8091C0
:10132000B0008F778093B00095CF8091B0008F7D13
:10133000F9CFEBEBF1E01382128288EE93E0A0E0AC
:10134000B0E084839583A683B78384E091E09183A2
:10135000808385EC90E09587848784EC90E0978784
:10136000868780EC90E0918B808B81EC90E0938B72
:10137000828B82EC90E0958B848B86EC90E0978B4F
:10138000868B118E128E138E148E08950E94080A79
:1013900008F481E00895E89409C097FB3EF4909525
:1013A0008095709561957F4F8F4F9F4F9923A9F03E
:1013B000F92F96E9BB279395F695879577956795CD
:1013C000B795F111F8CFFAF4BB0F11F460FF1BC011
:1013D0006F5F7F4F8F4F9F4F16C0882311F096E9A4
:1013E00011C0772321F09EE8872F762F05C0662352
:1013F00071F096E8862F70E060E02AF09A95660F0B
:10140000771F881FDAF7880F9695879597F90895C3
:10141000990F0008550FAA0BE0E8FEEF1616170605
:10142000E807F907C0F012161306E407F50798F06D
:10143000621B730B840B950B39F40A2661F0232B86
:10144000242B252B21F408950A2609F4A140A69502
:101450008FEF811D811D08950E943F0A0C94B00AF0
:101460000E94A20A38F00E94A90A20F0952311F0E8
:101470000C94990A0C949F0A11240C94E40A0E947B
:10148000C10A70F3959FC1F3950F50E0551F629FFD
:10149000F001729FBB27F00DB11D639FAA27F00DCD
:1014A000B11DAA1F649F6627B00DA11D661F829FF4
:1014B0002227B00DA11D621F739FB00DA11D621FD9
:1014C000839FA00D611D221F749F3327A00D611DF6
:1014D000231F849F600D211D822F762F6A2F1124D8
:1014E0009F5750409AF0F1F088234AF0EE0FFF1F0B
:1014F000BB1F661F771F881F91505040A9F79E3F62
:10150000510580F00C94990A0C94E40A5F3FE4F3CF
:10151000983ED4F3869577956795B795F795E795B7
:101520009F5FC1F7FE2B880F911D9695879597F9C0
:10153000089597F99F6780E870E060E008959FEF55
:1015400080EC089500240A9416161706180609065A
:10155000089500240A941216130614060506089529
:10156000092E0394000C11F4882352F0BB0F40F4B1
:10157000BF2B11F460FF04C06F5F7F4F8F4F9F4FF1
:10158000089557FD9058440F551F59F05F3F71F073
:101590004795880F97FB991F61F09F3F79F08795DA
:1015A0000895121613061406551FF2CF4695F1DF63
:1015B00008C0161617061806991FF1CF86957105F3
:1015C000610508940895E894BB2766277727CB0127
:1015D00097F908955058BB27AA270E94020B0C9434
:1015E000B00A0E94A20A38F00E94A90A20F039F439
:1015F0009F3F19F426F40C949F0A0EF4E095E7FB44
:101600000C94990AE92F0E94C10A58F3BA1762078D
:1016100073078407950720F079F4A6F50C94E30A84
:101620000EF4E0950B2EBA2FA02D0B01B9019001FD
:101630000C01CA01A0011124FF27591B99F0593F41
:1016400050F4503E68F11A16F040A22F232F342F89
:101650004427585FF3CF469537952795A795F040D7
:101660005395C9F77EF41F16BA0B620B730B840BEC
:10167000BAF09150A1F0FF0FBB1F661F771F881FA4
:10168000C2F70EC0BA0F621F731F841F48F48795FC
:1016900077956795B795F7959E3F08F0B0CF9395EE
:1016A000880F08F09927EE0F9795879508950E9467
:1016B0006B0B0C94B00A0E94A90A58F00E94A20A6F
:1016C00040F029F45F3F29F00C94990A51110C94D1
:1016D000E40A0C949F0A0E94C10A68F39923B1F3AB
:1016E000552391F3951B550BBB27AA276217730748
:1016F000840738F09F5F5F4F220F331F441FAA1FDC
:10170000A9F335D00E2E3AF0E0E832D09150504097
:10171000E695001CCAF72BD0FE2F29D0660F771F45
:10172000881FBB1F261737074807AB07B0E809F02B
:10173000BB0B802DBF01FF2793585F4F3AF09E3FB0
:10174000510578F00C94990A0C94E40A5F3FE4F395
:10175000983ED4F3869577956795B795F7959F5FF3
:10176000C9F7880F911D9695879597F90895E1E03F
:10177000660F771F881FBB1F621773078407BA079E
:1017800020F0621B730B840BBA0BEE1F88F7E095F9
:1017900008950E94C90A88F09F5798F0B92F992799
:1017A000B751B0F0E1F0660F771F881F991F1AF04C
:1017B000BA95C9F714C0B13091F00E94E30AB1E0C4
:1017C00008950C94E30A672F782F8827B85F39F0C3
:1017D000B93FCCF3869577956795B395D9F73EF4E5
:1017E00090958095709561957F4F8F4F9F4F08958D
:1017F0000E94080A08F48FEF089516F00C94D70C95
:101800000C949F0A68940C94990A0E94C90AA8F340
:101810009923C1F3AEF3DF93CF931F930F93FF92FE
:10182000C92FDD2788232AF02197660F771F881F8D
:10183000DAF720E030E040E85FEB9FE3883920F002
:10184000803E38F021968F770E94EB0AE8E6F0E0C0
:1018500004C00E94EB0AE5E9F0E00E94E50C8B0170
:10186000BE01EC01FB2E6F5771097595771F880B30
:10187000990B0E94CD0928E132E741E35FE30E9422
:101880003F0AAF2D9801AE01FF900F911F91CF91AC
:10189000DF910E94020B0C94B00AFA01EE0FFF1FB9
:1018A000309621053105A1F16115710561F480388B
:1018B000BFE39B0749F168949038810561F0803857
:1018C000BFEF9B0741F099234AF5FF3FE105310542
:1018D000210519F1E8940894E795D901AA2329F480
:1018E000AB2FBE2FF85FD0F310C0FF5F70F4A6954A
:1018F000E0F7F73950F019F0FF3A38F49F779F93EB
:101900000DD00F9007FC9058089546F00C949F0A54
:1019100060E070E080E89FE308954FE79F775F9372
:101920004F933F932F930E94050C2F913F914F911E
:101930005F910E942C0A0C94A50C29F416F00C94CB
:10194000990A0C94E30A0C949F0A0E94C90AA8F30E
:101950009638A0F707F80F92E8942BE33AEA48EBA1
:101960005FE70E94420A0F920F920F924DB75EB747
:101970000F920E944E0DE2ECF0E00E94E50C4F91B8
:101980005F91EF91FF91E595EE1FFF1F49F0FE5724
:10199000E0684427EE0F441FFA95E1F74195550B97
:1019A0000E94180D0F9007FE0C940C0D08959F3F98
:1019B00031F0915020F4879577956795B795880F0A
:1019C000911D9695879597F90895DF93CF931F936F
:1019D0000F93FF92EF92DF927B018C01689406C017
:1019E000DA2EEF010E943F0AFE01E894A5912591AD
:1019F000359145915591A6F3EF010E94020BFE012E
:101A00009701A801DA9469F7DF90EF90FF900F91AA
:101A10001F91CF91DF9108959B01AC0160E070E0D0
:101A200080E89FE30C94570B0C94990A0C94D70C04
:101A30000E94C90AD8F39923C9F3940F511DA3F347
:101A40009150504094F059F0882332F0660F771F80
:101A5000881F91505040C1F79E3F51052CF7880FC9
:101A6000911D9695879597F908955F3FACF0983E44
:101A70009CF0BB27869577956795B79508F4B1607C
:101A80009395C1F7BB0F58F711F460FFE8CF6F5F74
:101A90007F4F8F4F9F4FE3CF0C94E40AFA01DC0194
:101AA000AA0FBB1F9B01AC01BF5728F42227332785
:101AB0004427507820C0B75190F4AB2F00244695AE
:101AC00037952795011CA395D2F3002071F0220FC2
:101AD000331F441FB395DAF30ED00C94EA0A613039
:101AE0007105A0E88A07B94630F49B01AC0166276E
:101AF000772788279078309621F02083318342839E
:101B000053830895AA1BBB1B51E107C0AA1FBB1F2B
:101B1000A617B70710F0A61BB70B881F991F5A9579
:101B2000A9F780959095BC01CD010895A1E21A2EE8
:101B3000AA1BBB1BFD010DC0AA1FBB1FEE1FFF1F71
:101B4000A217B307E407F50720F0A21BB30BE40BC1
:101B5000F50B661F771F881F991F1A9469F7609508
:101B60007095809590959B01AC01BD01CF010895C2
:101B7000EE0FFF1F0590F491E02D0994FB01DC01AD
:101B80008D91019080190110D9F3990B0895F89463
:021B9000FFCF85
:101B9200000000009101F1001E01DE014F012D0144
:101BA20041012F2F22225C5C6208660C6E0A720DC4
:101BB2007409006E756C6C00747275650066616CF8
:101BC200736500746F7069635F6C6472004C756D4D
:101BD200696E6F736964616465006D7367706179C2
:101BE2006C6F61645F6C647200746F7069635F74C0
:101BF20065726D0054656D70657261747572610015
:101C02006D73677061796C6F61645F7465726D008A
:101C1200746F7069635F77696E640056616C6F639D
:101C2200696461646520646F2076656E746F006D0F
:101C320073677061796C6F61645F77696E64000DC0
:021C42000A0096
:00000001FF
