:100000000C9462000C948A000C948A000C948A0070
:100010000C948A000C948A000C948A000C948A0038
:100020000C948A000C948A000C948A000C948A0028
:100030000C948A000C948A000C948A000C948A0018
:100040000C9467020C948A000C9435020C940F02F5
:100050000C948A000C948A000C948A000C948A00F8
:100060000C948A000C948A000000000025002800EF
:100070002B0000000000240027002A0000000000E0
:1000800023002600290004040404040404040202DA
:100090000202020203030303030301020408102007
:1000A0004080010204081020010204081020000012
:1000B0000008000201000003040700000000000027
:1000C0000000B40411241FBECFEFD8E0DEBFCDBFC7
:1000D00011E0A0E0B1E0EAEAFDE002C005900D9277
:1000E000A233B107D9F721E0A2E3B1E001C01D922C
:1000F000AC3DB207E1F710E0C2E6D0E004C02197C2
:10010000FE010E94CD06C136D107C9F70E94B10297
:100110000C94D3060C940000AF92BF92CF92DF9262
:10012000EF92FF920F931F93CF93DF936C017B01AC
:100130008B01040F151FEB015E01AE18BF08C0173D
:10014000D10759F06991D601ED91FC910190F081B0
:10015000E02DC6010995892B79F7C501DF91CF9173
:100160001F910F91FF90EF90DF90CF90BF90AF90D5
:100170000895FC01538D448D252F30E0842F90E0AD
:10018000821B930B541710F0CF9608950197089592
:10019000FC01918D828D981761F0A28DAE0FBF2F5B
:1001A000B11D5D968C91928D9F5F9F73928F90E0B1
:1001B00008958FEF9FEF0895FC01918D828D981720
:1001C00031F0828DE80FF11D858D90E008958FEF5D
:1001D0009FEF0895FC01918D228D892F90E0805C26
:1001E0009F4F821B91098F73992708958FE391E0A8
:1001F0000E94EA0021E0892B09F420E0822F089573
:1002000080E090E0892B29F00E94F60081110C9487
:1002100000000895FC01A48DA80FB92FB11DA35AA9
:10022000BF4F2C91848D90E001968F739927848F16
:10023000A689B7892C93A089B1898C918370806439
:100240008C93938D848D981306C00288F389E02DDA
:1002500080818F7D80830895EF92FF920F931F938B
:10026000CF93DF93EC0181E0888F9B8D8C8D981369
:100270001AC0E889F989808185FF15C09FB7F89475
:10028000EE89FF896083E889F989808183708064C1
:1002900080839FBF81E090E0DF91CF911F910F910C
:1002A000FF90EF900895F62E0B8D10E00F5F1F4F1B
:1002B0000F731127E02E8C8D8E110CC00FB607FC2A
:1002C000FACFE889F989808185FFF5CFCE010E94B8
:1002D0000A01F1CFEB8DEC0FFD2FF11DE35AFF4F1B
:1002E000F0829FB7F8940B8FEA89FB898081806246
:1002F000CFCFCF93DF93EC01888D8823B9F0AA8903
:10030000BB89E889F9898C9185FD03C0808186FDD0
:100310000DC00FB607FCF7CF8C9185FFF2CF80811F
:1003200085FFEDCFCE010E940A01E9CFDF91CF9189
:1003300008953FB7F8948091370190913801A091CA
:100340003901B0913A0126B5A89B05C02F3F19F09D
:100350000196A11DB11D3FBFBA2FA92F982F882745
:10036000BC01CD01620F711D811D911D42E0660F20
:10037000771F881F991F4A95D1F70895FC010190B6
:100380000020E9F73197AF01481B590BBC018FE3FF
:1003900091E00C948C008F929F92AF92BF920F933A
:1003A0001F93CF93DF93CDB7DEB7A1970FB6F89425
:1003B000DEBF0FBECDBF19A2423008F44AE08E0165
:1003C0000F5D1F4F842E912CB12CA12CA5019401FF
:1003D0000E94AB06E62FB901CA01EA30F4F4E05DF1
:1003E000D801EE938D01232B242B252B79F790E058
:1003F00080E0109719F0CD010E94BE01A1960FB6C2
:10040000F894DEBF0FBECDBFDF91CF911F910F914A
:10041000BF90AF909F908F900895E95CE1CF1F92BD
:100420000F920FB60F9211242F933F934F935F9328
:100430006F937F938F939F93AF93BF93EF93FF93AC
:100440008FE391E00E940A01FF91EF91BF91AF917C
:100450009F918F917F916F915F914F913F912F91DC
:100460000F900FBE0F901F9018951F920F920FB60E
:100470000F9211242F938F939F93EF93FF93E0910B
:100480004F01F09150018081E0915501F0915601AA
:1004900082FD1BC09081809158018F5F8F732091E6
:1004A0005901821741F0E0915801F0E0E15CFE4F04
:1004B000958F80935801FF91EF919F918F912F918C
:1004C0000F900FBE0F901F9018958081F4CF1F9250
:1004D0000F920FB60F9211242F933F938F939F93F8
:1004E000AF93BF938091330190913401A091350176
:1004F000B09136013091320123E0230F2D3758F5AA
:100500000196A11DB11D2093320180933301909378
:100510003401A0933501B093360180913701909159
:100520003801A0913901B0913A010196A11DB11D88
:100530008093370190933801A0933901B0933A0129
:10054000BF91AF919F918F913F912F910F900FBECF
:100550000F901F90189526E8230F0296A11DB11D3C
:10056000D2CF789484B5826084BD84B5816084BD27
:1005700085B5826085BD85B5816085BD80916E0041
:10058000816080936E001092810080918100826072
:1005900080938100809181008160809381008091AF
:1005A00080008160809380008091B100846080939E
:1005B000B1008091B00081608093B00080917A009A
:1005C000846080937A0080917A00826080937A00C0
:1005D00080917A00816080937A0080917A008068AF
:1005E00080937A001092C100ECE9F0E0249148E891
:1005F000242E40E0342EF10184918823C1F090E054
:10060000880F991FFC01EE58FF4FA591B491FC0192
:10061000E859FF4FC591D4913FB7F8949C91822F30
:10062000809598239C939881892388833FBFE0918C
:100630004F01F091500182E08083E0914B01F091F5
:100640004C011082E0914D01F0914E018FEC8083BE
:1006500010925701E0915301F091540186E080839C
:10066000E0915101F0915201808180618083E0919D
:100670005101F0915201808188608083E0915101A5
:10068000F0915201808180688083E0915101F09166
:10069000520180818F7D808300E010E0C2E0D0E0D5
:1006A000C12CD12C7601E0EBF0E08491ECE9F0E094
:1006B0009491F101249170E060E02223E9F0882315
:1006C00059F0833009F4A7C008F09AC0813009F4CA
:1006D000A8C0823009F4A9C0E22FF0E0EE0FFF1F9E
:1006E000E458FF4FA591B4918C91982321E080E0CC
:1006F00009F420E0622F782F072E000C880B990B4D
:100700000E9484059B01AC01C701B6010E94E2046E
:100710006B017C010E9499012B013C018AE0882E2B
:10072000912CA12CB12C0E9499016419750986099C
:100730009709683E734081059105A8F3F1E08F1A8F
:100740009108A108B10828EE420E23E0521E611C58
:10075000711C81149104A104B10429F7219709F0B7
:100760004CC020E030E040E05FE3C701B6010E94EA
:10077000390623EC35EF48EC50E40E9439069B0122
:10078000AC010E94E20426E636E646E650E40E940A
:10079000390660933B0170933C0180933D01909337
:1007A0003E0182E191E00E94BE01C0903B01D090E9
:1007B0003C01E0903D01F0903E01A7019601C70188
:1007C000B6010E94A6068823E9F183E291E00E9427
:1007D000BE0181E391E00E94BE018FE291E00E94A0
:1007E000BE010115110509F459CF0E94F6008823B6
:1007F00009F454CF0E94000051CFC1E0D0E053CFA4
:100800008730B1F08830D1F0843009F065CF809125
:1008100080008F7D03C0809180008F77809380005F
:100820005BCF84B58F7784BD57CF84B58F7DFBCFE9
:100830008091B0008F778093B0004ECF8091B00050
:100840008F7DF9CF46015701E894B7F82FEF3FEFBE
:100850004FE75FE7C501B4010E94A60681110DC0F4
:100860002FEF3FEF4FE75FE7C501B4010E944E0550
:1008700018161CF487E291E0AACF2FEF3FEF4FE765
:100880005FE4C701B6010E94340618161CF48BE21F
:1008900091E09DCF2FEF3FEF4FE75FECC701B6012F
:1008A0000E944E0587FDF3CF20E030E0A901C7018B
:1008B000B6010E944E0587FF09C06DE28FE391E00B
:1008C0000E942C01F7FAF094F7F8F0942AE037ED43
:1008D00043EA5BE3C701B6010E94E2044B015C01FD
:1008E0000E9453056B017C010E9482059B01AC01B3
:1008F000C501B4010E94E1044B015C014AE0C7015B
:10090000B6010E94CB016EE28FE391E00E942C01C0
:1009100020E030E040E251E4C501B4010E94390614
:100920004B015C010E9453056B01F12CE12C4AE064
:10093000C701B6010E94CB01C701B6010E94820522
:100940009B01AC01C501B4010E94E10420E030E04C
:1009500040E251E40E9439060E94530590E080E095
:100960004AE00E94CB0135CFEFE3F1E0138212821F
:1009700088EE93E0A0E0B0E084839583A683B783FC
:1009800084E091E09183808385EC90E09587848773
:1009900084EC90E09787868780EC90E0918B808B49
:1009A00081EC90E0938B828B82EC90E0958B848B32
:1009B00086EC90E0978B868B118E128E138E148EA0
:1009C00008955058BB27AA270E94F9040C94FA05F1
:1009D0000E94EC0538F00E94F30520F039F49F3FA7
:1009E00019F426F40C94E9050EF4E095E7FB0C9459
:1009F000E305E92F0E940B0658F3BA176207730745
:100A00008407950720F079F4A6F50C942D060EF4D2
:100A1000E0950B2EBA2FA02D0B01B90190010C010E
:100A2000CA01A0011124FF27591B99F0593F50F426
:100A3000503E68F11A16F040A22F232F342F44277E
:100A4000585FF3CF469537952795A795F040539576
:100A5000C9F77EF41F16BA0B620B730B840BBAF046
:100A60009150A1F0FF0FBB1F661F771F881FC2F7B1
:100A70000EC0BA0F621F731F841F48F487957795C5
:100A80006795B795F7959E3F08F0B0CF9395880F7F
:100A900008F09927EE0F9795879508950E94BF0556
:100AA00008F481E008950E94130688F09F5798F09B
:100AB000B92F9927B751B0F0E1F0660F771F881F63
:100AC000991F1AF0BA95C9F714C0B13091F00E947D
:100AD0002D06B1E008950C942D06672F782F8827F6
:100AE000B85F39F0B93FCCF3869577956795B395A4
:100AF000D9F73EF490958095709561957F4F8F4F13
:100B00009F4F0895E89409C097FB3EF49095809517
:100B1000709561957F4F8F4F9F4F9923A9F0F92FC3
:100B200096E9BB279395F695879577956795B79541
:100B3000F111F8CFFAF4BB0F11F460FF1BC06F5F27
:100B40007F4F8F4F9F4F16C0882311F096E911C039
:100B5000772321F09EE8872F762F05C0662371F05A
:100B600096E8862F70E060E02AF09A95660F771F6E
:100B7000881FDAF7880F9695879597F90895990F4A
:100B80000008550FAA0BE0E8FEEF16161706E80757
:100B9000F907C0F012161306E407F50798F0621B78
:100BA000730B840B950B39F40A2661F0232B242B4D
:100BB000252B21F408950A2609F4A140A6958FEF6C
:100BC000811D811D089597F99F6780E870E060E0BE
:100BD00008959FEF80EC089500240A9416161706D6
:100BE00018060906089500240A941216130614061E
:100BF00005060895092E0394000C11F4882352F081
:100C0000BB0F40F4BF2B11F460FF04C06F5F7F4F38
:100C10008F4F9F4F089557FD9058440F551F59F01F
:100C20005F3F71F04795880F97FB991F61F09F3FD9
:100C300079F087950895121613061406551FF2CF02
:100C40004695F1DF08C0161617061806991FF1CF52
:100C500086957105610508940895E894BB27662779
:100C60007727CB0197F908950E94BF0508F48FEF0D
:100C700008950E944C060C94FA050E94EC0538F089
:100C80000E94F30520F0952311F00C94E3050C94D9
:100C9000E90511240C942E060E940B0670F3959F13
:100CA000C1F3950F50E0551F629FF001729FBB2763
:100CB000F00DB11D639FAA27F00DB11DAA1F649FFF
:100CC0006627B00DA11D661F829F2227B00DA11DB2
:100CD000621F739FB00DA11D621F839FA00D611D38
:100CE000221F749F3327A00D611D231F849F600D59
:100CF000211D822F762F6A2F11249F5750409AF082
:100D0000F1F088234AF0EE0FFF1FBB1F661F771F0D
:100D1000881F91505040A9F79E3F510580F00C94D8
:100D2000E3050C942E065F3FE4F3983ED4F38695DA
:100D300077956795B795F795E7959F5FC1F7FE2B78
:100D4000880F911D9695879597F908950E94BF0584
:100D5000880B990B0895A1E21A2EAA1BBB1BFD015B
:100D60000DC0AA1FBB1FEE1FFF1FA217B307E4078A
:100D7000F50720F0A21BB30BE40BF50B661F771FE2
:100D8000881F991F1A9469F76095709580959095C2
:100D90009B01AC01BD01CF010895EE0FFF1F05902F
:0A0DA000F491E02D0994F894FFCFC0
:100DAA00000000002C018C00B9007901EA00C8009B
:100DBA00DC00207C467265712E204D656469646191
:100DCA003A20006E616E00696E66006F7666000DED
:020DDA000A000D
:00000001FF
